:1000000001308A0004280000FF238316900000308E
:100010008A0031290A108A100A1182074534723485
:1000200072346F347234203465346E342034433487
:100030006834653463346B34733475346D34203410
:100040000D340034323084000008031935280130A3
:10005000A100A001A00B2A28A10B29284A30A0004A
:10006000A00B30283328800B27280800831687121E
:10007000831287160830A1003D280000A1174E28E2
:10008000A113B30C03188712031C871621174E28DF
:100090002113A10B41284C28000087120230A00038
:1000A0008401840B5128A00B502823308400840B3A
:1000B00057280000A11B4028211B48280800AF0139
:1000C000B001B10183168510831285148316851043
:1000D000831285101230B2002220831685108312FD
:1000E00085140730A000A00B732876280000831623
:1000F00085148312AF018518AF0A1A30A000A00B37
:100100007F280000831685148312AF018518AF0A7B
:10011000AF08031D9628B20132080A20B20AA000D7
:10012000B300362013303202031D8C281A30A00091
:10013000A00B98280000B1013108043C031CE02802
:1001400024303107B200B301B401B601B501B401E6
:100150003408073C031CD8280310B30D83168514FC
:100160008312851CAE280930A000A00BB528B82842
:1001700083168514831285183314B601B5018316CE
:1001800085148312851CD6283608A3003508B50AC5
:100190000319B60AB7002308B800033C031CD6288D
:1001A000031DBF283708E73C0318BF28B40AA82856
:1001B0003308A1003208840021088000B10A9C287D
:1001C0008316851083128514B1013108033C031C8A
:1001D000F0282430310784000008B007B10AE52870
:1001E00028083002031DF6280030A10054290030F1
:1001F000A1001F08C33921049F000230A000A00BFA
:10020000FF28022900009F149F1804291E08A1003E
:100210005C29C830A9002B082A072C07AD00290843
:10022000B30036203230B20022202A08B300362034
:100230003230B20022202B08B30036203230B20018
:1002400022202C08B30036203230B20022202D08A4
:10025000B30036203230B20022200D30B3003620F9
:100260005F2903081F3983008316871283128712C0
:10027000AE011F13003083169100073083129900DE
:10028000A901AA01AB01AC01AD011F130130831616
:1002900091001F129F121F1383129F131F142E0809
:1002A000023C031861295F28A108031D5F29260865
:1002B000AA002408AB00F7282108AC000929AE01E8
:1002C00069290C30AF00C030B2002220AF0B632987
:0602D000AE0A4F29630095
:02400E00C43FAD
:00000001FF
;PIC16F676
;CRC=CFF3  CREATED="20-sep-17 12:13"
