:100000008031742900004539F23772106537A0211C
:10001000E832E335F33A6D100D00203085000E30E4
:1000200084000008031922280130F800F701F70BBB
:100030001728F80B16284A30F700F70B1D28202840
:10004000800B1428080021000C1322000C17083024
:10005000F8002A280000F8173D28F8132000B10CFA
:10006000220003180C13031C0C1778173D28781373
:10007000F80B2E283B2800000C130230F7008401F7
:10008000840B4028F70B3F2822308400840B46283D
:100090004928F81B2D28781B372820000800AB01C1
:1000A000AC01AD0121008C1022008C1421008C10B9
:1000B00022008C1012302000AE000D2021008C1088
:1000C00022008C140730F700F70B64286728000023
:1000D00021008C142000AB018C18AB0A1A30F700F9
:1000E000F70B7028000021008C142000AB018C1845
:1000F000AB0AAB08031DC728033023009100003072
:1001000092000B088B139517151400000000891B33
:100110008B1713087F390319C6282000AE0023006F
:1001200011082000AF00230012082000B0002E08A4
:10013000B10023202F082300910020003008230065
:1001400092000B088B139517151400000000891BF3
:100150008B17130D140D7F390319C6282000AE002C
:10016000230011082000AF00230012082000B00077
:100170002E08B10023202F08230091002000300812
:1001800023009200910A0319920A812820001A3054
:10019000F700F70BC9280000AD012D08043C031C33
:1001A00018292D08F8002030FA007808AE007A08E7
:1001B000AF00B001B101B301B201B1013108073C98
:1001C000031C0E290310B00D21008C1420008C1C80
:1001D000E4280930F700F70BEB28EE2821008C14F7
:1001E00020008C183014B301B20121008C142000BF
:1001F0008C1C0C293308FA003208B20A0319B30A1E
:10020000B4007A08B500033C031C0C29031DF52833
:100210003408E73C0318F528B10ADE283008F80056
:100220002F0885002E08840078088000AD0ACD28AC
:1002300021008C1022008C142000AD012D08033CFD
:10024000031C2A292D088400203085000008AC07F3
:10025000AD0A1E2924082C02031D30290030F800A5
:1002600080319F290030F80021001D08833978046F
:100270009D000230F700F70B3B293E2900009D143A
:100280001130F7009D1C4629F70B42291C08F80085
:1002900080312000A729C830A50027082607280795
:1002A000A9002508B10023203230AE000D20260819
:1002B000B10023203230AE000D202708B1002320EA
:1002C0003230AE000D202808B10023203230AE00BD
:1002D0000D202908B10023203230AE000D200D3052
:1002E000B10023208031AA296A30210099000C1323
:1002F00022000C132000AA0123008C018D01220092
:1003000092019101940193012000A501A601A7018A
:10031000A801A90121001E109E101E11013023000A
:100320008C0000308D0021001E129E121E139E13A1
:100330001D1420002A08023C0318AC294F28F80895
:10034000031DAA292208A6002008A7003229780840
:10035000A8004B29AA01B4290C30AB00C030AE0074
:0C0360000D20AB0BAE29AA0A9A296300FD
:020000040001F9
:04000E00843FFF1E0E
:00000001FF
;PIC16F1826
;CRC=14B2  CREATED="22-sep-17 09:28"
