:1000000003308A00A72B0000FF00030E8301A1002C
:100010007F08A0000A08AB008A01A00E0408A20015
:100020007708A3007808A4007908A5007A08A6003C
:1000300003170D080313A70003170F080313A800E5
:1000400003170C080313A90003170E080313AA00D3
:10005000831383128C308400801E30288C1A512820
:10006000220884002308F7002408F8002508F90076
:100070002608FA00270803178D0003132808031722
:100080008F000313290803178C0003132A08031792
:100090008E0003132B088A00210E8300FF0E7F0EB3
:1000A00009008A1153283608B60A2E3E84008313AD
:1000B0008C1E58281A0880003608053C03187A2838
:1000C0002E08C83C031D792830082F073107F80097
:1000D00032087802031D79282F08B3003008B400D5
:1000E0003108B500371037088316870001308312B6
:1000F0008706B6018C128A1130284539F237721002
:100100006537A021E832E335F33A6D100D00A022E7
:10011000733AAE24EE30EC306D31F234E33000004F
:10012000203B31173110A02A5427A024CE29502A71
:1001300000004300252948004C00430025294800C1
:1001400042308400831300080319B4280130F800FA
:10015000F701F70BA928F80BA8284A30F700F70B8E
:10016000AF28B228800BA6280800480EF039F70007
:100170000F3006057704860000000614BF2806101D
:1001800008000608F700060E0F39F800080083166D
:10019000061086100611831286100F30831606058E
:1001A000F038860083120615000006140000C120F6
:1001B0007808C8000610000006140000C120780866
:1001C000C70006100F308316060586008312480EFE
:1001D000F700F030F70577084704F8007808C70003
:1001E000C71BCD28451C8610451886140000061133
:1001F00000000610460EC7000F30C7054708C800AC
:10020000B52046080F39C700C800B52008002830BF
:10021000BE000C30BF000130C0000630C100061027
:10022000861006110F30831606058600061086100C
:1002300006110F308312C200A0200130BD003D081E
:10024000033C031C2B290330C800B5200530C20035
:10025000A020BD0A1F290230C800B5200530C20009
:10026000A020BD013D08033C031C42293E303D0750
:10027000840083130008C200C5014208C600C720DD
:10028000BD0A32290800420B462949294030C300E3
:100290004A29C30101304102C30743088038C40022
:1002A000C5014408C600C72008004008073A0319E2
:1002B00063290B3A03196829063A03197029023A8F
:1002C000031976297B290130C100C200432180290E
:1002D000C5010130C600C7200230C200A02080291D
:1002E0000130C1000230C20043218029C501103015
:1002F000C600C72080290130C5004008C600C720BD
:1003000008000B08BD008B13831603178C170C1401
:100310000000000083120313BD1B8B1703170C088A
:100320007F390319D5290313BD0003170D080313E3
:10033000BE0003170F080313BF003D08C00055217E
:100340003E0803178D0003133F0803178F000313A4
:100350000B08C0008B13831603178C170C140000B6
:10036000000083120313C01B8B1703170C0D0E0D17
:100370007F390319D5290313BD0003170D08031393
:10038000BE0003170F080313BF003D08C00055212E
:100390003E0803178D0003133F0803178F008D0AD3
:1003A00003198F0A0313812903170313080001306F
:1003B000C100C2004321873003178D0000308F0039
:1003C000031381210130C1000230C200432190306B
:1003D00003178D0000308F00031381210830BD000A
:1003E000FA30C200A020BD0BF02907218A11DF2BB3
:1003F000BD01BE01BF0183168511831285158316C9
:100400008511831285111230C200A0208316851138
:10041000831285150730F700F70B0C2A0F2A00000E
:10042000831685158312BD018519BD0A1A30F700A0
:10043000F70B182A0000831685158312BD01851954
:10044000BD0ABD08031D7F2A7D3003178D000030D3
:100450008F0003130B08C0008B13831603178C1730
:100460000C140000000083120313C01B8B1703172A
:100470000C087F3903197E2A0313C00003170D08E7
:100480000313C10003170F080313C20040080C1E1A
:10049000472A9900410803178D00031342080317E8
:1004A0008F0003130B08C3008B13831603178C17DD
:1004B0000C140000000083120313C31B8B170317D7
:1004C0000C0D0E0D7F3903197E2A0313C00003178C
:1004D0000D080313C10003170F080313C2004008DF
:1004E0000C1E702A9900410803178D00031342085F
:1004F00003178F008D0A03198F0A292A03131A3054
:10050000F700F70B812A0000BF013F08043C031CE1
:10051000BD2A38303F07F800FA010318FA0A7808B4
:10052000C0007A08C100C201C301C3014308073CEF
:10053000031CB22A0310C20D831685158312851D74
:100540009C2A0930F700F70BA32AA62A83168515E3
:100550008312851942148316851583128519AB2AD7
:10056000C30A962A4208F800400884008313411801
:10057000831778088000BF0A852A831685118312A5
:100580008515BF013F08033C031CCE2A38303F07C6
:10059000840083130008BE07BF0AC22A3C083E023B
:1005A000031DD42A0030F800F808031DDB2A3A089E
:1005B000AC003808AD008A11E02B4008F8013F027A
:1005C0000318E52A3F08F700F12AF7010830C100B7
:1005D000BF0DF70D400877020318F700F80DC10BA7
:1005E000E82A080078083D08BF006430C000DD221A
:1005F0007708BD0078083030031D052BBE1C0C2B7E
:10060000BE190C2B3E1A2030082BBE113E123E1490
:10061000F8077808C00055213D08BF000A30C00027
:10062000DD227708BD0078083030031D1D2BBE1970
:10063000212B3E1C212B3E1A2030F8077808C000E1
:1006400055213030BD073D08C0005521080001305C
:10065000C1000230C20043213308BD001130BE008A
:10066000F2220330C1000230C2004321DF30C0005B
:1006700055210430C1000230C200432199300317D4
:100680008D0000308F00031381210630C10002303D
:10069000C20043213408BD001130BE00F2220830F0
:1006A000C1000230C20043219A3003178D00003090
:1006B0008F00031381210C30C1000230C20043219E
:1006C0003508BD001330BE00F2220F30C1000230E9
:1006D000C20043219C3003178D0000308F000313AC
:1006E00081210330C1000130C20043212C08BD002C
:1006F0001130BE00F2220530C1000130C20043219A
:10070000DF30C00055210630C1000130C200432156
:100710009D3003178D0000308F00031381210A30B4
:10072000C1000130C20043212D08BD001130BE00C0
:10073000F2220C30C1000130C20043219E30031769
:100740008D0000308F00031381218A11E82B0308EC
:100750001F398300613083168F000F080317871538
:1007600082300313990006309A00A630980090302A
:1007700083129800B601FF30B700831603170908EB
:10078000C039890003131F129F120030031788001D
:10079000831287018801890183130313AC01AD0122
:1007A000AE01AF01B001B101B201B301B401B501B5
:1007B000C0308B0483168C1683120721D729F829A1
:1007C0000830BD00FA30C200A020BD0BE22B272B61
:1007D0000830BD00FA30C200A020BD0BEA2BDF2B91
:0207E0006300B4
:04400E00C42FFF3F7D
:00000001FF
;PIC16F883
;CRC=1B08  CREATED="20-sep-17 12:13"
