:03000000020F9854
:0C0F9800787FE4F6D8FD758140020FDF81
:1010DF004572726F7220656E20436865636B73751E
:1010EF006D200D00204573742E496E616C616D6229
:1010FF0072696361002076312E31202055544E20C5
:0E110F00494E535054004300255248004C00F6
:031325000136008E
:1012D100EF4E6016E4FCFD000DBD00010CED641045
:0A12E1004C70F4EF1F70E91E80E668
:0112EB0022E0
:0912B10012121BD2A17F057E0080
:1012BA00AB07AA06EB4A600E7FE87E031212D1EB57
:0712CA001B70F11A80EE22F7
:10121B00EF30E004D2A48002C2A4EF30E104D2A5E7
:10122B008002C2A5EF30E204D2A68002C2A6EF3044
:08123B00E303D2A722C2A7229F
:071300007E001212BA7F0308
:08130700C2A01212B1C2A12222
:0A131B00E4FF1213077F010213071D
:04111D008F0C8D0D99
:10112100E50DB4010EE50C2480F97804A2E713D88B
:10113100FB8011E50DB4021DE50C24C0F97804A271
:10114100E713D8FBF50EE9540FF50FAF0E12130795
:05115100AF0F121307AF
:011156002276
:10115700E4FF12121B7FC81213007F321213007FA5
:101167006E1213007F021213077F021213077F0804
:10117700121307E4FF1213077F0C121307E4FF1281
:0711870013077F06021307A6
:02129000AE07A7
:10129200EE540FF9EE54F0FFD2A07804A2E713D86F
:0E12A200FBFF1212B1C2A1AF011212B1C2A124
:0112B000221B
:06118E007B007A007908E5
:061194008B0C8A0D890E90
:10119A00E4F50FF510AB0CAA0DA90E851082850F88
:1011AA0083120B5CFF600D1212900510E51070E5BA
:0411BA00050F80E1BC
:0111BE00220E
:0C0D1E00EE3395E0FDFC7B007A007908C4
:0E0D2A008F0F8E0E8D0D8C0C8B108A1189127E
:100D3800E4751601F515F514F513F517F518E4FF24
:100D4800FEFDFCAB16AA15A914A813D3120BDE409E
:100D580074E47B0AFAF9F8AF0FAE0EAD0DAC0C12C5
:100D6800109B8F168E158D148C13E47B0AFAF9F8F4
:100D7800AF0FAE0EAD0DAC0C12109BEB2430AB10C8
:100D8800AA11A912851882851783120BBC851882AF
:100D9800851783120B5CD3648094B94011AB10AAF9
:100DA80011A9128518828517837407120B890518F3
:100DB800E5187002051785160F85150E85140D8523
:100DC800130C020D46E4FDFCE517C313FEE51813EA
:100DD800FFC3ED9FEC9E5049AB10AA11A9128D825A
:100DE8008C83120B5CF519C3E5189DCFE5179CCFD2
:100DF80024FFCF34FF8F82F583120B5C8D828C83A6
:100E0800120BBCC3E5189DCFE5179CCF24FFCF3448
:100E1800FF8F82F583E519120BBC0DBD00010C8014
:100E2800A7AB10AA11A912851882851783E4120BA3
:010E3800BCFD
:010E39002296
:0C130F00758920759850758DFDD28E22D6
:03002300021024A4
:10102400C0E0C0D075D000C000C005C006C0073005
:101034009813AF99AD360536ED25E02437F87600E0
:1010440008A607C298D3E53664809485403AE5380B
:1010540064C84537702FE53A253CFFE539353BFE3A
:10106400E53E2FFFE53D3EFEC3EF9540FFEE953F85
:101074004F7012853930853A31853B32853C338552
:101084003D34853E35753600C298D007D006D0056C
:07109400D000D0D0D0E03203
:1011BF00E4FBFAF582F583EB25E0FBEA33FA309096
:1011CF00FD7F1E7E001212D1309003430301209049
:0E11DF00FDA3E5826408458370DDAE02AF0318
:0111ED0022DF
:100EFF00E4FEF508F509F50AF50BD290C2907F12C2
:100F0F001212BAD2907F197E001212D1A290E4FE73
:100F1F007F501212D1A290E43370097BFF7A1079BF
:100F2F00DF1208627F507E001212D1E4F50AF50B32
:100F3F001211BFE50B25E02422F8A60608A6070527
:100F4F000BE50B7002050AC39405E50A64809480D3
:100F5F0040DED290E4F50AF50BE50B25E02422F8EC
:100F6F00E6FE08E62509F509EE3508F508050BE557
:100F7F000B7002050A6404450A70DEE509B52B08FB
:080F8F00E508B52A03E4FEFFAA
:010F97002237
:1012EC00120EFFEF4E700C85262C85272D85222E95
:0412FC0085232F22F5
:1011EE007D017F0112111D7BFF7A1079F31211948C
:1011FE007D027F0112111D7BFF7A11790412119469
:0D120E007FD07E071212BA12115702131B77
:100E3A007D027F0112111DAE30AF31120D1E12114B
:100E4A008E7D027F0312111D7B007A0079DF121159
:100E5A00947D027F0412111D7BFF7A1179151211FC
:100E6A00947D027F0612111DAE32AF33120D1E128F
:100E7A00118E7D027F0812111D7BFF7A11791712DC
:100E8A0011947D027F0C12111DAE34AF35120D1E66
:100E9A0012118E7D027F0F12111D7BFF7A11791BB1
:100EAA001211947D017F0312111DAE2CAF2D120D6C
:100EBA001E12118E7D017F0512111D7B007A0079A9
:100ECA00DF1211947D017F0612111D7BFF7A1179C1
:100EDA00151211947D017F0A12111DAE2EAF2F1229
:100EEA000D1E12118E7D017F0C12111D7BFF7A11CE
:050EFA007917021194BC
:10126A001211EEE4F59075B00312130FD2AFD2AC9F
:10127A001212EC7FD07E071212BA120E3A7FD07E7B
:06128A00071212BA80EA0F
:100FA40002126AE493A3F8E493A34003F68001F2E7
:100FB40008DFF48029E493A3F85407240CC8C3334E
:100FC400C4540F4420C8834004F456800146F6DF1D
:100FD400E4800B0102040810204080901325E47E75
:100FE400019360BCA3FF543F30E509541FFEE49312
:100FF400A360010ECF54C025E060A840B8E493A3D9
:10100400FAE493A3F8E493A3C8C582C8CAC583CA03
:10101400F0A3C8C582C8CAC583CADFE9DEE780BEBB
:0113280000C4
:100B5C00BB010CE58229F582E5833AF583E022504E
:100B6C0006E92582F8E622BBFE06E92582F8E22298
:0D0B7C00E58229F582E5833AF583E49322B2
:100B8900BB010FF8E58229F582E5833AF583E02870
:100B9900F0225009C58229F8E58226F622BBFE0912
:100BA900C58229F8E22582F222F8EA2583F583E94C
:030BB9009328225C
:100BBC00F8BB010DE58229F582E5833AF583E8F06F
:100BCC00225006E92582C8F622BBFE05E92582C81B
:020BDC00F22203
:10109B00C2D5E830E70FB2D5E4C39BFBE49AFAE480
:1010AB0099F9E498F8EC30E717B2D51210D1120C7D
:1010BB0056E4C39BFBE49AFAE499F9E498F88003AD
:1010CB00120C5630D50DE4C39FFFE49EFEE49DFD4C
:0410DB00E49CFC2273
:100BDE00EB9FF5F0EA9E42F0E99D42F0E89C45F06D
:010BEE0022E4
:10080000E51B240FF8E6051B22780C300702780F51
:10081000E475F001120CE8020BEF2000EB7F2ED202
:10082000008018EF540F2490D43440D4FF30040BD0
:10083000EF24BFB41A0050032461FFE51C600215C9
:100840001C051FE51F7002051E30070D780CE475AE
:10085000F001120CE8EF020C080212437403D207F5
:100860008003E4C207F51B8B0C8A0D890EE4F51C8E
:10087000F51EF51FE51C60077F2012083B80F5750B
:100880001DFFC201C200C202C203C205C206C208E5
:10089000120809FF700D3007057F0012084CAF1FCA
:1008A000AE1E22B4255FC2D5C204120809FF24D0AF
:1008B000B40A00501A75F00A781C30D50508B6FF46
:1008C0000106C6A426F620D5047002D20380D924DE
:1008D000CFB41A00EF5004C2E5D204020A4CD20190
:1008E00080C6D20080C0D20280BCD2D580BAD205E8
:1008F00080B47F2012083B2002077401B51C004021
:10090000F1120800FF12083B020874D208D20680D8
:1009100095120800FB120800FA120800F94A4B7001
:1009200006791D7A0B7BFF20022EE51C602A7E00D3
:100930008E82758300120B5C60060EEE651D70F0F2
:10094000C2D5EBC0E0EAC0E0E9C0E0EE120A93D005
:10095000E0F9D0E0FAD0E0FB120BEFFF60AAEBC0A9
:10096000E0EAC0E0E9C0E012083BD0E02401F9D0A1
:10097000E03400FAD0E0FBE51D0460DCD51DD98031
:10098000877BFF7A0A798FD202809C791080027966
:1009900008C206C2088008D2D5790A8004790AC242
:1009A000D5E51D047002F51DE4FAFDFEFF120800F6
:1009B000FC7B08200113120800FD7B1030000A1296
:1009C0000800FE120800FF7B20EC3382D592D55040
:1009D00013C3E43000069FFFE49EFEE42001039D64
:1009E000FDE49CFCE4CBF8C201EC700CCFCECDCC86
:1009F000E824F8F870F38017C3EF33FFEE33FEED11
:100A000033FDEC33FCEB33FB994002FB0FD8E9EBF1
:100A1000300105F8D0E0C448B201C0E00AEC4D4E08
:100A20004F78207B0070C2EAB51D0040BCC0E012C8
:100A30000A95D0F0D0E0200104C4C0E0C4B201C0E7
:100A4000F0120824D0F0D5F0EB020874120CF8096B
:100A50001153098B5808E24C08DE42098F4F099761
:0F0A60004409974908F743099D550981460981C3
:100A6F00450981470B3D5008E62D08EA2E090D2B4D
:100A7F0008EE23090B200B262A08A64800000905BB
:100A8F003F3F3F00790AA2D5200314300509B91062
:100A9F00020404B9080104A2D52006025001042063
:100AAF0002689202B51C005034C0E07F2030031959
:100ABF007F30A20272067205500F120AECC202C2F8
:100ACF0006C205C2087F30800F300503E9C0E0126F
:100ADF00083B300503D0E0F9D0E0B51CCC3005174A
:100AEF007F30B9100C12083B7F583004077F788095
:100AFF0003B9080312083B3002057F2D02083B7F24
:100B0F00202008F87F2B2006F322920280CF286E38
:100B1F00756C6C2900D2011208003001F8C20178FF
:100B2F001C30D50108F60208A62D5043495812086B
:100B3F00002403B405004001E4900B389312082CF5
:0D0B4F00743A12082CD203751C0402098BA5
:100BEF00BB010689828A83E0225002E722BBFE0204
:090BFF00E32289828A83E4932237
:100C0800BB010689828A83F0225002F722BBFE01CB
:020C1800F322C5
:100C1A0075F008758200EF2FFFEE33FECD33CDCC91
:100C2A0033CCC58233C5829BED9AEC99E582984014
:100C3A000CF582EE9BFEED9AFDEC99FC0FD5F0D6F1
:100C4A00E4CEFBE4CDFAE4CCF9A88222B800C1B91B
:100C5A000059BA002DEC8BF084CFCECDFCE5F0CB59
:100C6A00F97818EF2FFFEE33FEED33FDEC33FCEB92
:100C7A0033FB10D703994004EB99FB0FD8E5E4F94D
:100C8A00FA227818EF2FFFEE33FEED33FDEC33FC3A
:100C9A00C933C910D7059BE99A4007EC9BFCE99A2E
:100CAA00F90FD8E0E4C9FAE4CCFB2275F010EF2F73
:100CBA00FFEE33FEED33FDCC33CCC833C810D70773
:100CCA009BEC9AE899400AED9BFDEC9AFCE899F8AE
:0E0CDA000FD5F0DAE4CDFBE4CCFAE4C8F92241
:100CE800FAE6FB0808E6F925F0F618E6CA3AF6220D
:100CF800D083D082F8E4937012740193700DA3A38B
:100D080093F8740193F5828883E47374029368609E
:060D1800EFA3A3A380DF9E
:10124300EFB40A07740D12124E740A309811A8995C
:10125300B8130CC2983098FDA899C298B811F6300B
:0712630099FDC299F59922E3
:00000001FF
