:03000000020DA44A
:0C0DA400787FE4F6D8FD75813F020CEE6C
:100D7A004572726F7220656E20436865636B737586
:060D8A006D200D000D00BC
:100D5F00EF4E6016E4FCFD000DBD00010CED6410BC
:0A0D6F004C70F4EF1F70E91E80E6DF
:010D79002257
:070D4100120DD17F327E008C
:100D4800AB07AA06EB4A600E7FE87E03120D5FEB45
:070D58001B70F11A80EE226E
:090DC800D2F1D2D4D2BCD2E8224F
:0C0DB000758920759850758DFDD28E223B
:100CBF00E4FBFAF582F583EB25E0FBEA33FA30909B
:100CCF00FD7F1E7E00120D5F3090034303012090C5
:0E0CDF00FDA3E5826408458370DDAE02AF031D
:010CED0022E4
:100B5C00E4FEF508F509F50AF50BD290C2907F1268
:100B6C00120D48D2907F197E00120D5FA290E4FE08
:100B7C007F50120D5FA290E43370097BFF7A0D79E0
:100B8C007A1208627F507E00120D5FE4F50AF50BB5
:100B9C00120CBFE50B25E02422F8A60608A60705D3
:100BAC000BE50B7002050AC39405E50A648094807A
:100BBC0040DED290E4F50AF50BE50B25E02422F893
:100BCC00E6FE08E62509F509EE3508F508050BE5FE
:100BDC000B7002050A6404450A70DEE509B52B08A2
:080BEC00E508B52A03E4FEFF51
:010BF40022DE
:100D9000120B5CEF4E700C85262C85272D85222E9C
:040DA00085232F2256
:0B0DBC00D2F820F8FDA2BDE4FE33FFDA
:010DC7002209
:080DD1008F993099FDC29922AF
:100C83007536007537C8E539253BFFE538353AFE3B
:100C9300E53D2FF53FE53C3EF53EAF37120D41AF45
:100CA30039120D41AF3B120D41AF3D120D41AF3F24
:0C0CB300120D417BFF7A0D798E02086261
:100CEE00120DB0120DC8120B5CEF4E701685263821
:100CFE0085273985223A85233B120DBC8E3C8F3DCC
:0C0D0E00120C837F007E09120D4880DA71
:10080000E51B240FF8E6051B22780C300702780F51
:10081000E475F001120C4D020BF52000EB7F2ED297
:10082000008018EF540F2490D43440D4FF30040BD0
:10083000EF24BFB41A0050032461FFE51C600215C9
:100840001C051FE51F7002051E30070D780CE475AE
:10085000F001120C4DEF020C3B020D1A7403D2078B
:100860008003E4C207F51B8B0C8A0D890EE4F51C8E
:10087000F51EF51FE51C60077F2012083B80F5750B
:100880001DFFC201C200C202C203C205C206C208E5
:10089000120809FF700D3007057F0012084CAF1FCA
:1008A000AE1E22B4255FC2D5C204120809FF24D0AF
:1008B000B40A00501A75F00A781C30D50508B6FF46
:1008C0000106C6A426F620D5047002D20380D924DE
:1008D000CFB41A00EF5004C2E5D204020A4CD20190
:1008E00080C6D20080C0D20280BCD2D580BAD205E8
:1008F00080B47F2012083B2002077401B51C004021
:10090000F1120800FF12083B020874D208D20680D8
:1009100095120800FB120800FA120800F94A4B7001
:1009200006791D7A0B7BFF20022EE51C602A7E00D3
:100930008E82758300120C0E60060EEE651D70F03F
:10094000C2D5EBC0E0EAC0E0E9C0E0EE120A93D005
:10095000E0F9D0E0FAD0E0FB120BF5FF60AAEBC0A3
:10096000E0EAC0E0E9C0E012083BD0E02401F9D0A1
:10097000E03400FAD0E0FBE51D0460DCD51DD98031
:10098000877BFF7A0A798FD202809C791080027966
:1009900008C206C2088008D2D5790A8004790AC242
:1009A000D5E51D047002F51DE4FAFDFEFF120800F6
:1009B000FC7B08200113120800FD7B1030000A1296
:1009C0000800FE120800FF7B20EC3382D592D55040
:1009D00013C3E43000069FFFE49EFEE42001039D64
:1009E000FDE49CFCE4CBF8C201EC700CCFCECDCC86
:1009F000E824F8F870F38017C3EF33FFEE33FEED11
:100A000033FDEC33FCEB33FB994002FB0FD8E9EBF1
:100A1000300105F8D0E0C448B201C0E00AEC4D4E08
:100A20004F78207B0070C2EAB51D0040BCC0E012C8
:100A30000A95D0F0D0E0200104C4C0E0C4B201C0E7
:100A4000F0120824D0F0D5F0EB020874120C5D0906
:100A50001153098B5808E24C08DE42098F4F099761
:0F0A60004409974908F743099D550981460981C3
:100A6F00450981470B3D5008E62D08EA2E090D2B4D
:100A7F0008EE23090B200B262A08A64800000905BB
:100A8F003F3F3F00790AA2D5200314300509B91062
:100A9F00020404B9080104A2D52006025001042063
:100AAF0002689202B51C005034C0E07F2030031959
:100ABF007F30A20272067205500F120AECC202C2F8
:100ACF0006C205C2087F30800F300503E9C0E0126F
:100ADF00083B300503D0E0F9D0E0B51CCC3005174A
:100AEF007F30B9100C12083B7F583004077F788095
:100AFF0003B9080312083B3002057F2D02083B7F24
:100B0F00202008F87F2B2006F322920280CF286E38
:100B1F00756C6C2900D2011208003001F8C20178FF
:100B2F001C30D50108F60208A62D5043495812086B
:100B3F00002403B405004001E4900B389312082CF5
:0D0B4F00743A12082CD203751C0402098BA5
:100BF500BB010689828A83E0225002E722BBFE02FE
:090C0500E32289828A83E4932230
:100C0E00BB010CE58229F582E5833AF583E022509B
:100C1E0006E92582F8E622BBFE06E92582F8E222E5
:0D0C2E00E58229F582E5833AF583E49322FF
:100C3B00BB010689828A83F0225002F722BBFE0198
:020C4B00F32292
:100C4D00FAE6FB0808E6F925F0F618E6CA3AF622A8
:100C5D00D083D082F8E4937012740193700DA3A326
:100C6D0093F8740193F5828883E47374029368603A
:060C7D00EFA3A3A380DF3A
:100D1A00EFB40A07740D120D25740A309811A899B8
:100D2A00B8130CC2983098FDA899C298B811F63039
:070D3A0099FDC299F5992211
:00000001FF
