:100000008031082C000043008301803120007708F4
:10001000A0007808A1007908A2007A08A3002300B4
:1000200011082000A400230012082000A5002300CE
:1000300013082000A600230014082000A700850153
:1000400091308400801E2628911A3E282008F7004F
:100050002108F8002208F9002308FA0024082300E8
:10006000910020002508230092002000260823008C
:100070009300200027082300940009003208B20AE8
:100080000A3E8400203085000318850A911E462808
:1000900023001908800020003208053C0318692855
:1000A0002A08C83C031D68282C082B072D07F800D8
:1000B0002E087802031D68282B08AF002C08B0001A
:1000C0002D08B10021008C10023022008C06200087
:1000D000B2019112803126284539F2377210653706
:1000E000A021E832E335F33A6D100D00A022733AF7
:1000F000AE24EE30EC306D31F234E3300000203BC2
:1001000031173110A02A5427A024CE29502A0000EC
:10011000252948004C00430025294800203085004F
:100120001D30840000080319A3280130F800F701EE
:10013000F70B9828F80B97284A30F700F70B9E2802
:10014000A128800B952808004318AA2822000D1228
:10015000AC28200022000D1621000D122000C3182B
:10016000B52822008D12B728200022008D1621000C
:100170008D1220004319C02822000D13C228200030
:1001800022000D1721000D132000C319CB282200D7
:100190008D13CD28200022008D1721008D13000023
:1001A00022008C1721008C13D52822008C132100EB
:1001B0008C1320000800C40121000D16003020001F
:1001C0000D1A0130C40421008D16003020008D1A54
:1001D0000130F7000310F70D7708C40421000D1754
:1001E000003020000D1B0130F700F70DF70DFC303B
:1001F000F7057708C40421008D17003020008D1BFF
:100200000130F700F70DF70DF70DF830F705770817
:10021000C4044408F800080021008C130C120C13CD
:1002200022000C1221000C120D168D160D178D17C1
:1002300022000C1721000C13000022008C17210053
:100240008C1300002000DB207808C30022008C13F0
:1002500021008C13000022008C1721008C13000059
:100260002000DB207808C20022008C1321008C13B0
:100270000D128D120D138D132000430EF700F03078
:10028000F70577084204F8007808C200C21F4A291F
:1002900021001429C008031D512922000C125329E2
:1002A000200022000C1621000C12000022000C136A
:1002B00021000C13000022008C1321008C1320005D
:1002C000410EC2000F30C2054208C300A4204108FD
:1002D0000F39C200C300A42008002830B9000C3038
:1002E000BA000130BB000630BC0022008C13210094
:1002F0008C1322000C1221000C1222000C1321007E
:100300000C130D128D120D138D138C130C120C1374
:100310000F302000BD008E200130B8003808033CAB
:10032000031C9A290330C300A4200530BD008E2091
:10033000B80A8E290230C300A4200530BD008E20EB
:10034000B8013808033C031CB4291930380784006D
:10035000203085000318850A0008BD00C0013D0853
:10036000C1000C21B80AA12908003D0BB829BB29FE
:100370004030BE00BC29BE0101303C02BE073E0831
:100380008038BF00C0013F08C1000C2108003B08B5
:10039000073A0319D5290B3A0319DA29063A031942
:1003A000E229023A0319E829ED290130BC00BD0019
:1003B000B521F229C0010130C1000C210230BD007D
:1003C0008E20F2290130BC000230BD00B521F22997
:1003D000C0011030C1000C21F2290130C0003B08DF
:1003E000C1000C2108000B088B132300951715146E
:1003F00000000000891B8B1713087F3903193B2A63
:100400002000B800230011082000B90023001208C2
:100410002000BA003808BB00C7213908230091002A
:1004200020003A08230092000B088B13951715142F
:1004300000000000891B8B17130D140D7F39031961
:100440003B2A2000B800230011082000B900230037
:1004500012082000BA003808BB00C7213908230061
:10046000910020003A0823009200910A0319920A91
:100470002000F3292300200008000130BC00BD004B
:10048000B521763023009100003092002000F32146
:100490000130BC000230BD00B5217F302300910047
:1004A000003092002000F3210830B800FA30BD007F
:1004B0008E20B80B562A6D218031312CB801B9013C
:1004C000BA0121008C1122008C1521008C11220010
:1004D0008C1112302000BD008E2021008C112200D2
:1004E0008C150730F700F70B732A762A00002100DD
:1004F0008C152000B8018C19B80A1A30F700F70BD8
:100500007F2A000021008C152000B8018C19B80A40
:10051000B808031DDC2A6C302300910000309200E3
:100520000B088B139517151400000000891B8B17FF
:1005300013087F390319DB2A2000BB0023001108B0
:100540002000BC00230012082000BD003B08111E43
:10055000A72A23009A0020003C08230091002000D5
:100560003D08230092000B088B139517151400000B
:100570000000891B8B17130D140D7F390319DB2A1B
:100580002000BB00230011082000BC00230012083B
:100590002000BD003B08111ECB2A23009A0020003A
:1005A0003C082300910020003D0823009200910A9E
:1005B0000319920A902A20001A30F700F70BDE2A5E
:1005C0000000BA013A08043C031C1A2B13303A0706
:1005D000F8002030FA000318FA0A7808BB007A08FD
:1005E000BC00BD01BE01BE013E08073C031C102B30
:1005F0000310BD0D21008C1520008C1DFA2A093036
:10060000F700F70B012B042B21008C1520008C190F
:100610003D1421008C1520008C19092BBE0AF42AE8
:100620003D08F8003C0885003B08840078088000FD
:10063000BA0AE22A21008C1122008C152000BA018E
:100640003A08033C031C2F2B13303A078400203058
:1006500085000318850A0008B907BA0A202B370855
:100660003902031D352B0030F800F808031D3C2B20
:100670003508A8003308A9008031322C3B08F80166
:100680003A020318462B3A08F700522BF7010830BC
:10069000BC00BA0DF70D3B0877020318F700F80D00
:1006A000BC0B492B080078083808BA006430BB003E
:1006B0003E237708B80078083030031D662BB91C3C
:1006C0006D2BB9196D2B391A2030692BB9113912DC
:1006D0003914F8077808BB00C7213808BA000A3077
:1006E000BB003E237708B80078083030031D7E2B0E
:1006F000B919822B391C822B391A2030F807780857
:10070000BB00C7213030B8073808BB00C72108003C
:100710000130BC000230BD00B5212F08B8001130F7
:10072000B90053230330BC000230BD00B521DF30D7
:10073000BB00C7210430BC000230BD00B52103302E
:1007400023009100003092002000F3210630BC000D
:100750000230BD00B5213008B8001130B900532374
:100760000830BC000230BD00B52188302300910064
:10077000003092002000F3210C30BC000230BD009C
:10078000B5213108B8001330B90053230F30BC0035
:100790000230BD00B5218A30230091000030920064
:1007A0002000F3210330BC000130BD00B521280832
:1007B000B8001130B90053230530BC000130BD0032
:1007C000B521DF30BB00C7210630BC000130BD00C1
:1007D000B5218B3023009100003092002000F321DE
:1007E0000A30BC000130BD00B5212908B800113025
:1007F000B90053230C30BC000130BD00B5218C3052
:1008000023009100003092002000F32180313A2C27
:100810006A302100990023009F1582309B0006302A
:100820009C00A6309E0090309D002000B201230065
:100830008C018D012200920191019401930120000D
:10084000A801A901AA01AB01AC01AD01AE01AF0144
:10085000B001B101C0308B042100911620006D2140
:100860003D2A5E2A0830B800FA30BD008E20B80B51
:10087000342C882B0830B800FA30BD008E20B80B1D
:060880003C2C312C63004A
:020000040001F9
:04000E00843FFF1E0E
:00000001FF
;PIC16F1826
;CRC=E5DB  CREATED="20-sep-17 12:55"
